:020000040800F2
:100000000000032039020008451900085D190008A6
:100010008D0200088D0200088D020008000000001B
:100020000000000000000000000000008D02000839
:100030008D020008000000008D0200086D19000804
:100040008D0200088D0200088D0200088D02000854
:10005000851900088D0200088D0200088D02000835
:100060008D0200088D0200088D0200088D02000834
:100070008D0200088D0200088D0200088D02000824
:100080008D0200088D0200088D0200088D02000814
:100090008D0200088D0200088D0200088D02000804
:1000A0008D0200088D0200088D0200088D020008F4
:1000B0008D0200088D0200088D0200088D020008E4
:1000C0008D0200088D0200088D0200088D020008D4
:1000D0008D0200088D0200088D0200088D020008C4
:1000E0008D0200088D0200088D0200088D020008B4
:1000F0008B190008791900088D0200088D0200088C
:100100008D0200088D0200088D0200088D02000893
:100110008D0200088D0200088D0200088D02000883
:100120008D0200088D0200088D0200088D02000873
:0C0130008D0200088D0200088D020008FE
:1001400010B5054C237833B9044B13B10448AFF311
:1001500000800123237010BDA000002000000000DB
:100160008C3F000808B5034B1BB103490348AFF3AC
:10017000008008BD00000000A40000208C3F0008A3
:1001800001F0FF01102A2BDB10F0070F08D010F848
:10019000013B013A8B422DD010F0070F42B3F6D14C
:1001A000F0B441EA012141EA014122F007047FF065
:1001B00000070023F0E80256083C85EA010586EABC
:1001C000010685FA47F5A3FA87F586FA47F6A5FAF8
:1001D00087F68EB9EED1F0BC01F0FF0102F0070204
:1001E00032B110F8013B013A83EA010313B1F8D1AF
:1001F0000020704701387047002D06BF3546033890
:10020000073815F0010F07D1013015F4807F02BFC8
:10021000013015F4C03F0130F0BC0138704700BF19
:10022000D458C4500433C4188C42F9D370470360C7
:1002300004308842FBD370470C48854601F0E8FC47
:100240000B480C490C4A0023FFF7EDFF0B480C4903
:100250000023FFF7EEFF0B480B490023FFF7E9FFF0
:1002600002F056FE00F030FDFEE700000000032023
:10027000040000208C000020D04C0008A0000020CA
:1002800030010020D400032028080320FEE70000EE
:1002900080B400AF054BDB68044A43F40043D360ED
:1002A00000BFBD465DF8047B704700BF00040058E6
:1002B00080B485B000AF78604FF0B0431A6D4FF056
:1002C000B0417B6813430B654FF0B0431A6D7B68F8
:1002D0001340FB60FB6800BF1437BD465DF8047B2C
:1002E000704780B483B000AF78607B681B6843F4CC
:1002F00080327B681A6000BF0C37BD465DF8047B16
:10030000704780B483B000AF78607B681B6843F0AF
:1003100001027B681A6000BF0C37BD465DF8047BA4
:10032000704780B483B000AF786039607B685A68EA
:100330003B681B04DB431A407B685A6000BF0C37E4
:10034000BD465DF8047B704780B483B000AF786031
:1003500039607B685A683B681B041A437B685A60A3
:1003600000BF0C37BD465DF8047B704780B483B096
:1003700000AF786039607B685A683B68DB431A409D
:100380007B685A6000BF0C37BD465DF8047B704740
:1003900080B483B000AF786039607B683A689A6057
:1003A00000BF0C37BD465DF8047B704780B483B056
:1003B00000AF786039603B681A047B689A6000BFC0
:1003C0000C37BD465DF8047B704780B483B000AF46
:1003D000786039607B68DA683B6813403A689A4213
:1003E00001D1012300E0002318460C37BD465DF81B
:1003F000047B704780B483B000AF786039607B685D
:10040000DA693B6813403A689A4201D1012300E05F
:10041000002318460C37BD465DF8047B704700008A
:1004200080B500AF02211948FFF7E4FF0346002B17
:1004300009D0164B5B68DB4303F00203002B02D0AC
:1004400000F0C8F81FE001211048FFF7D3FF034672
:10045000002B08D00D4B5B6803F00103002B02D189
:1004600000F07CF80FE008210848FFF7C3FF0346BF
:10047000002B09D0054B5B68DB4303F00803002B1E
:1004800002D000F0E9F800BF00BF80BD000C0058AA
:1004900080B500AF02212248FFF797FF0346002BEB
:1004A00009D11F4B5B68DB4303F40033002B02D000
:1004B00000F084F831E002211948FFF786FF034677
:1004C000002B09D1164B5B68DB4303F40033002B90
:1004D00002D000F073F820E008211148FFF775FF03
:1004E0000346002B09D10E4B5B68DB4303F400236A
:1004F000002B02D000F09CF80FE020210848FFF705
:1005000064FF0346002B09D1054B5B68DB4303F412
:100510000013002B02D000F02DF800BF00BF80BDFB
:10052000000C005880B500AFFFF7B2FE00BF80BDE1
:1005300080B500AF4FF48010FFF7BAFE0648FFF712
:10054000E0FE0548FFF7CDFE2C2001F04AFD2D20EE
:1005500001F047FD00BF80BD000C005880B500AF22
:1005600002F02AFB01210248FFF712FF00BF80BD05
:10057000000C005880B500AF20210348FFF7E4FECF
:1005800002F04AFB00BF80BD000C005880B500AFF0
:1005900002210248FFF7EAFE00BF80BD000C0058B0
:1005A00080B500AF02210448FFF700FF0221024896
:1005B000FFF7B7FE00BF80BD000C005880B500AF4C
:1005C00002210348FFF7C0FE02F076FB00BF80BDAA
:1005D000000C005880B500AF02F084FB02210248F5
:1005E000FFF7D6FE00BF80BD000C005880B582B07A
:1005F00000AF786008210C48FFF7E7FE0346002BA8
:1006000007D00A4A7B68136008210748FFF789FE74
:1006100006E07B68984708210348FFF7C7FE00BF44
:100620000837BD4680BD00BF000C0058BC0000204C
:1006300080B500AF08210648FFF786FE054B1B6812
:10064000984708210248FFF7B1FE00BF80BD00BFF8
:10065000000C0058BC00002080B500AF02F0D8FBB1
:1006600008210248FFF794FE00BF80BD000C00582F
:1006700080B400AFBFF34F8F00BF064BDB6803F4BD
:10068000E0620449044B1343CB60BFF34F8F00BFBC
:1006900000BFFDE700ED00E00400FA0580B400AF04
:1006A0004FF0B0431B684FF0B04243F480731360C7
:1006B00000BFBD465DF8047B704780B400AF4FF0CB
:1006C000B0431B6803F48063B3F5806F01D101234D
:1006D00000E000231846BD465DF8047B704780B4F7
:1006E00083B000AF78604FF0B0431B6823F0F00296
:1006F0004FF0B0417B6813430B6000BF0C37BD4621
:100700005DF8047B704780B483B000AF78604FF031
:10071000B043D3F8883023F003024FF0B0417B6838
:100720001343C1F8883000BF0C37BD465DF8047B29
:10073000704780B400AF4FF0B043D3F8943003F06B
:100740000073B3F1007F01D1012300E000231846BC
:10075000BD465DF8047B704780B400AF4FF0B043F6
:10076000D3F8943003F08063B3F1806F01D101239B
:1007700000E000231846BD465DF8047B704780B456
:1007800000AF4FF0B043D3F8943003F08053B3F18F
:10079000805F01D1012300E000231846BD465DF8CB
:1007A000047B704780B400AF4FF0B043D3F894306F
:1007B0004FF0B04243F40003C2F8943000BFBD468E
:1007C0005DF8047B704780B485B000AF78604FF06F
:1007D000B043DA6C4FF0B0417B681343CB644FF009
:1007E000B043DA6C7B681340FB60FB6800BF1437D2
:1007F000BD465DF8047B704780B485B000AF78607B
:100800004FF0B0431A6E4FF0B0417B6813430B6654
:100810004FF0B0431A6E7B681340FB60FB6800BF6B
:100820001437BD465DF8047B7047000080B483B088
:1008300000AF7860064BD3F8002105497B6813436D
:10084000C1F8003100BF0C37BD465DF8047B70472E
:100850000000014080B483B000AF7860064BD3F84D
:10086000042105497B681343C1F8043100BF0C37EC
:10087000BD465DF8047B70470000014080B400AFC6
:10088000044B1B68C3F30B031846BD465DF8047B9D
:10089000704700BF002004E080B400AF044B1B6829
:1008A0001B0C9BB21846BD465DF8047B704700BF29
:1008B000002004E080B483B000AF7860064B1B6872
:1008C00023F0070204497B6813430B6000BF0C3719
:1008D000BD465DF8047B70470040005880B483B08B
:1008E00000AF78607B681B6843F001027B681A6088
:1008F00000BF0C37BD465DF8047B704780B489B0FB
:1009000000AF786039607B68FB60FB6853E8003FAC
:10091000BB60BB6823F00C033A681343FB617B6840
:10092000FA69BA617B617969BA6941E800233B6180
:100930003B69002BE7D100BF00BF2437BD465DF8FF
:10094000047B704780B483B000AF786039607B6807
:100950001B6823F400423B681A437B681A6000BF9F
:100960000C37BD465DF8047B704780B485B000AF9E
:10097000F860B9607A603B60FB681B6823F08053C5
:1009800023F4B0537968BA680A431A43FB681A60C3
:10099000FB685B6823F440523B681A43FB685A606B
:1009A00000BF1437BD465DF8047B704780B487B044
:1009B00000AFF860B9607A603B603B68B3F5004F08
:1009C00023D17B689BB21A461D4B33F812301A466E
:1009D000BB68B3FBF2F35A003B6A5B081A443B6AFC
:1009E000B2FBF3F39BB27B617A694FF6F07313406D
:1009F0003B617B695B089BB203F007033A691343D1
:100A00003B61FB683A69DA6013E07B689BB21A4687
:100A10000B4B33F812301A46BB68B3FBF2F23B6A59
:100A20005B081A443B6AB2FBF3F39BB21A46FB68BD
:100A3000DA6000BF1C37BD465DF8047B704700BF1D
:100A4000844B000880B483B000AF78607B68DB69BA
:100A500003F04003402B01D1012300E0002318469E
:100A60000C37BD465DF8047B704780B483B000AF9F
:100A700078607B68DB6903F40013B3F5001F01D1D4
:100A8000012300E0002318460C37BD465DF8047BC7
:100A9000704780B483B000AF78600B46FB70FA7883
:100AA0007B689A6200BF0C37BD465DF8047B7047D7
:100AB00080B48BB000AFF860B9607A60FB681A68E8
:100AC000BB687B617B6993FAA3F33B613B69BB61C4
:100AD000BB69002B01D1202303E0BB69B3FA83F388
:100AE000DBB25B00032101FA03F3DB431A40BB686E
:100AF0003B623B6A93FAA3F3FB61FB697B627B6A0F
:100B0000002B01D1202303E07B6AB3FA83F3DBB22D
:100B10005B00796801FA03F31A43FB681A6000BFAF
:100B20002C37BD465DF8047B704780B485B000AFBC
:100B3000F860B9607A60FB685A68BB68DB431A40AA
:100B4000BB68796801FB03F31A43FB685A6000BF76
:100B50001437BD465DF8047B704780B48BB000AF9E
:100B6000F860B9607A60FB689A68BB687B617B69F2
:100B700093FAA3F33B613B69BB61BB69002B01D1D5
:100B8000202303E0BB69B3FA83F3DBB25B000321EC
:100B900001FA03F3DB431A40BB683B623B6A93FAFA
:100BA000A3F3FB61FB697B627B6A002B01D12023ED
:100BB00003E07B6AB3FA83F3DBB25B00796801FA86
:100BC00003F31A43FB689A6000BF2C37BD465DF8FB
:100BD000047B704780B48BB000AFF860B9607A6076
:100BE000FB68DA68BB687B617B6993FAA3F33B61BE
:100BF0003B69BB61BB69002B01D1202303E0BB69CA
:100C0000B3FA83F3DBB25B00032101FA03F3DB43A6
:100C10001A40BB683B623B6A93FAA3F3FB61FB6932
:100C20007B627B6A002B01D1202303E07B6AB3FA4D
:100C300083F3DBB25B00796801FA03F31A43FB68C4
:100C4000DA6000BF2C37BD465DF8047B704780B486
:100C50008BB000AFF860B9607A60FB681A6ABB6855
:100C60007B617B6993FAA3F33B613B69BB61BB6921
:100C7000002B01D1202303E0BB69B3FA83F3DBB27D
:100C80009B000F2101FA03F3DB431A40BB683B6270
:100C90003B6A93FAA3F3FB61FB697B627B6A002BDF
:100CA00001D1202303E07B6AB3FA83F3DBB29B001C
:100CB000796801FA03F31A43FB681A6200BF2C3704
:100CC000BD465DF8047B704780B500AF4FF0FF3044
:100CD000FFF7ACFD4FF0FF30FFF7BCFD00F0EEFF7B
:100CE0000021002000F024FF0021012000F020FF5F
:100CF0000021022000F01CFF0120FFF7DBFDA020F7
:100D0000FFF7EDFC4C4B4D4A1A60FFF7C7FC00BFE4
:100D1000FFF7D3FC0346002BFAD000F0BFF8484899
:100D200002F0B6F9474802F0B3F9474802F0B0F9CB
:100D3000444802F0ADF9424802F0AAF900F0A2FDE1
:100D4000424802F0A5F9FFF7A7FD034619464048BF
:100D500002F018F9FFF792FD034619463D4802F0EC
:100D600011F93D4B1B8819463C4802F00BF93C4BEE
:100D70001B7819463B4802F005F93B4802F088F918
:100D80003A4BD3F88030DBB21946394802F0FAF812
:100D9000364BD3F88430C3F311031946354802F0BB
:100DA000F1F800F0CFF8344802F072F901E000F0F9
:100DB000DFF9324B03F160435B0143F008531B68DA
:100DC000012BF4D12E4800F009FA2E4B1B68DA43B0
:100DD0002D4B1B689A420DD12B4B1B68294A126878
:100DE00019462A4802F0CEF8274B1B68184600F037
:100DF0004BFC07E0244B1B68224A12681946244822
:100E000002F0C0F81D4B03F160435B0143F008534F
:100E100043F008031B68012B02D1002000F034FBD3
:100E20001C4802F035F91C4B01221A6000F0A0F9B1
:100E300000F0DEFCFAE700BF1C0000200048E801DB
:100E4000A43F0008A83F0008D43F00080040000865
:100E50001040000828400008E075FF1F40400008CF
:100E60000075FF1F584000086C4000080040005803
:100E70008040000894400008A8400008C0000020FE
:100E8000C80000203401002030010020C0400008CC
:100E9000EC400008144100083801002080B582B001
:100EA00002AF0220FFF78FFC022240212248FFF709
:100EB00054FE002240212048FFF737FE0122402146
:100EC0001D48FFF787FE072240211B48FFF7BFFEA2
:100ED000022240211848FFF7EBFD4FF48040FFF756
:100EE0008BFC0220FFF70FFC08211448FFF706FDDA
:100EF0000023002200211148FFF737FD4FF4004185
:100F00000E48FFF71FFD4FF4E13300934FF4004309
:100F100000220B490948FFF749FD0848FFF7DEFCAE
:100F200000BF0648FFF7A1FD0346002BF9D000BF24
:100F300000BFBD4680BD00BF00040048003801402E
:100F40000024F40080B588B000AF01F0FBFD104B29
:100F50003B60104B7B603B4619460F4801F0FAFBA3
:100F60000E4B3B610023BB600D4BFB600023BB615C
:100F70000023FB6140F23C537B6107F108031846F4
:100F800001F0D2FE01F0D8FD00BF2037BD4680BD84
:100F9000D4000320591100084D100008EC02032072
:100FA000E001032080B483B000AF7860084B03F108
:100FB00060435B0143F0085343F04C031A4601239E
:100FC000136000BF0C37BD465DF8047B704700BF5F
:100FD000C000002080B483B000AF7860084B03F1FC
:100FE00060435B0143F0085343F044031A46002377
:100FF000136000BF0C37BD465DF8047B704700BF2F
:10100000C000002080B483B000AF78600E4B03F1C5
:1010100060435B0143F0085343F044031A46012345
:10102000136000BF084B03F160435B0143F00853BA
:1010300043F044031B68012BF4D000BF0C37BD46BE
:101040005DF8047B704700BFC000002080B586B00B
:1010500000AF78603C4B03F160435B0143F0085301
:101060001A4601231360394802F012F87B685B6866
:101070000B337B617B691B889BB2B3F5124F04D0A5
:1010800049F20122934242D056E07B690233FB6071
:10109000FB681B78002B19D12B4B03F160435B01DC
:1010A00043F0085343F008031A4600231360264B0D
:1010B00003F160435B0143F0085343F004031A4615
:1010C00001231360224801F0E3FF35E0FB681B7841
:1010D000012B19D11C4B03F160435B0143F0085312
:1010E00043F008031A4601231360174B03F16043D2
:1010F0005B0143F0085343F004031A4600231360D6
:10110000144801F0C5FF17E000F0E8FB14E07B692C
:1011100002333B613B69002B0BD10B4B03F1604366
:101120005B0143F0085343F060031A460123136048
:1011300001E000F0D3FB00BF7B6800221A7000BF03
:101140001837BD4680BD00BFC000002030410008F8
:10115000484100086C41000880B483B000AF0346EA
:10116000FB7100BF0C37BD465DF8047B7047000083
:1011700080B500AF0C4B03F160435B0143F00853B3
:1011800043F04C031B68012B0CD1074B03F1604368
:101190005B0143F0085343F04C031A4600231360ED
:1011A00001F0F4FA00BF80BDC000002080B582B01D
:1011B00000AF78607B68DBB219460748FFF769FC2F
:1011C00000BF0548FFF73EFC0346002BF9D07B68C3
:1011D00018460837BD4680BD0038014080B586B04E
:1011E00002AF7860786801F007FA8B4BDB6B9A00EE
:1011F0004FF6FC73134003F1005303F540331B68B3
:101200001A46864B1A60864801F0BCFE0023FB603C
:101210000BE0824B1A68FB6813441B78194681481F
:1012200001F0B0FEFB680133FB60FB68292BF0D9AD
:101230007D4801F02DFF7B689B7A19467B68DB7A3D
:101240001A467B681B7B794801F09CFE7B685B7AC1
:10125000402B00F38B80002B40F3AF80013B3F2BF2
:1012600000F2AB8001A252F823F000BF7313000814
:101270007B13000883130008BB130008BB1300088E
:10128000BB130008BB130008BB130008BB13000806
:10129000BB130008BB130008BB130008BB130008F6
:1012A000BB130008BB1300088B130008931300083E
:1012B000BB130008BB130008BB130008BB130008D6
:1012C000BB130008BB130008BB130008BB130008C6
:1012D000BB130008BB130008BB130008BB130008B6
:1012E000BB130008BB130008BB130008BB130008A6
:1012F000BB130008BB130008BB130008BB13000896
:10130000BB130008BB130008BB130008BB13000885
:10131000BB130008BB130008BB130008BB13000875
:10132000BB130008BB1300089B130008A31300089D
:10133000BB130008BB130008BB130008BB13000855
:10134000BB130008BB130008BB130008BB13000845
:10135000BB130008BB130008BB130008BB13000835
:10136000BB130008BB130008AB130008502B20D0A0
:1013700023E02F4801F08CFE26E02E4801F088FE85
:1013800022E02D4801F084FE1EE02C4801F080FE92
:101390001AE02B4801F07CFE16E02A4801F078FEA6
:1013A00012E0294801F074FE0EE0284801F070FEBA
:1013B0000AE0274801F06CFE06E07B685B7A19467C
:1013C000244801F0DFFD00BF7B681B7819467B686D
:1013D0005B781A467B689B7818467B681B7900937C
:1013E00003461D4801F0CEFD1C4B5B7A002B0ED14D
:1013F0001A4B1B78002B0AD1184B5B78002B06D1B7
:10140000164B9B78002B02D1154801F041FE00BF1E
:101410001037BD4680BD00BF00400058C40000200A
:101420008841000898410008A0410008A441000834
:10143000BC410008E4410008084200082C420008B2
:10144000544200087C420008A4420008CC42000834
:10145000F44200082443000854430008C800002058
:101460007443000880B400AF054B00221A60054B9E
:1014700000221A6000BFBD465DF8047B704700BFC4
:10148000300100203401002080B584B000AF7860C6
:1014900000F010F80346FB7303E000F00BF803467E
:1014A000FB73FB7B002BF8D100BF00BF1037BD469C
:1014B00080BD000080B582B000AF0023BB71FF2368
:1014C000FB715C4801F0E4FDBB1D184601F01CF8FF
:1014D0000346FB71FB79FF2B05D1FB791946564872
:1014E00001F050FD31E0FB790F2B08D9FB791F2B60
:1014F00005D8FB791946514801F044FD25E0FB79F8
:101500001F2B08D9FB792F2B05D8FB7919464C489E
:1015100001F038FD19E0FB792F2B08D9FB793F2B1F
:1015200005D8FB791946474801F02CFD0DE0FB7901
:10153000002B05D1FB791946434801F023FD04E057
:10154000FB791946414801F01DFDBB79FF2B66D0A0
:10155000FF2B68DC112B2BDC002B64DB112B62D8FA
:1015600001A252F823F000BFB7150008BF1500080C
:10157000C7150008CF150008D7150008DF150008AB
:10158000E7150008EF150008F7150008FF1500081B
:101590000716000827160008271600082716000857
:1015A0002716000827160008271600080F1600083F
:1015B000FE2B30D037E0264801F06AFD34E02548A4
:1015C00001F066FD30E0244801F062FD2CE0234884
:1015D00001F05EFD28E0224801F05AFD24E0214898
:1015E00001F056FD20E0204801F052FD1CE01F48AC
:1015F00001F04EFD18E01E4801F04AFD14E01D48C0
:1016000001F046FD10E01C4801F042FD0CE01B48D3
:1016100001F03EFD08E01A4801F03AFD04E01948E7
:1016200001F036FD00E000BFFB7918460837BD46E3
:1016300080BD00BF98430008BC4300082844000850
:101640007C440008C44400080C45000844450008D8
:1016500080450008B4450008EC4500082046000815
:101660005C46000898460008D04600080847000875
:101670004047000880470008C0470008F8470008B6
:10168000344800086848000880B584B000AF78602E
:10169000FF23FB73484B03F160435B0143F00853A6
:1016A00043F008031B68002B1CD1434B03F160433C
:1016B0005B0143F0085343F004031B68012B0FD177
:1016C000FFF7F8FE0346FB73FFF7F4FE0346FB73D8
:1016D000FB7BFF2B06D1394801F0DAFCFEF7C8FF8F
:1016E00000F0FCF80020FFF7CFFE7B686FF0AA2225
:1016F000934223D07B6813F1AA2F4DD27B686FF001
:10170000EE22934204D07B68B3F1552F2ED043E0F4
:101710002B4801F0BDFCFFF7A5FE00F047FF034694
:10172000FB73FB7B002B05D0FB7B1946254801F0A2
:1017300029FC3CE0244801F0ABFC38E0234801F0F0
:10174000A7FCFFF78FFE0021002000F0FAFE034601
:10175000FB73FB7B002B05D0FB7B19461C4801F07B
:1017600011FC24E01B4801F093FC20E01A4801F032
:101770008FFCFFF777FE00F02CFF0346FB73FB7B2B
:10178000002B05D0FB7B1946144801F0FBFB0EE053
:10179000134801F07DFC0AE0124B1B68124A1268E4
:1017A0001946124801F0EEFBFFF75CFE00BF00BFD8
:1017B0001037BD4680BD00BFC0000020A048000813
:1017C000C4480008E84800082C490008604900089F
:1017D00084490008C8490008FC490008204A00085C
:1017E000604A00083001002034010020944A0008BB
:1017F00080B500AF1D4B1B686FF0AA2293420CD13D
:101800001B4B1B68B3F1AA2F07D11A4801F040FC0B
:10181000194B00221A60FEF72BFF144B1B68B3F123
:10182000552F0DD1124B1B686FF05522934207D1F3
:10183000124801F02DFC104B00221A60FEF718FF31
:101840000A4B1B686FF0EE2293420CD1084B1B68C9
:10185000B3F1EE2F07D10A4801F01AFC064B002223
:101860001A60FEF705FF00BF80BD00BF30010020F9
:1018700034010020C84A000838010020DC4A000872
:10188000EC4A000880B500AFFEF753FF0346002B7B
:1018900003D00E4801F0FCFB14E0FEF770FF034696
:1018A000002B03D00A4801F0F3FB0BE0FEF754FFD6
:1018B0000346002B03D0074801F0EAFB02E006488C
:1018C00001F0E6FBFEF76EFF00BF80BD004B000895
:1018D000144B00082C4B0008444B000880B400AFA8
:1018E000064B03F160435B0143F0085343F07C0374
:1018F0001A460123136000BFFDE700BFC0000020AF
:1019000080B485B000AF78604FF0B0431A6D4FF0EF
:10191000B0417B6813430B654FF0B0431A6D7B6891
:101920001340FB60FB6800BF1437BD465DF8047BC5
:10193000704780B500AF4FF40020FFF7E1FF00BF14
:1019400080BD000080B500AF022000F0D7F802484B
:1019500001F09EFBFEE700BF584B000880B500AFCA
:10196000014801F095FBFEE76C4B000880B500AF25
:1019700000F0FEF900BF80BD80B500AFFEF788FD26
:1019800000BF80BD80B400AFFEE780B500AFFEF7BA
:1019900047FD00BF80BD80B586B000AFF860B9607C
:1019A0007A6000237B610AE0AFF300800146BB68E8
:1019B0005A1CBA60CAB21A707B6901337B617A69BA
:1019C0007B689A42F0DB7B6818461837BD4680BDBD
:1019D00080B586B000AFF860B9607A6000237B61A3
:1019E00009E0BB685A1CBA601B781846FFF7DEFB9B
:1019F0007B6901337B617A697B689A42F1DB7B68A2
:101A000018461837BD4680BD80B483B000AF7860FB
:101A10004FF0FF3318460C37BD465DF8047B704726
:101A200080B483B000AF786039603B684FF40052F7
:101A30005A60002318460C37BD465DF8047B70479A
:101A400080B483B000AF7860012318460C37BD46E0
:101A50005DF8047B704780B485B000AFF860B96072
:101A60007A60002318461437BD465DF8047B704742
:101A700080B584B000AF7860114B1B68002B02D199
:101A80000F4B104A1A600E4B1B68FB600C4B1A6818
:101A90007B6813446A46934207D901F033FA034640
:101AA0000C221A604FF0FF3306E0054B1A687B6882
:101AB0001344034A1360FB6818461037BD4680BDC7
:101AC000D80000204001002080B485B000AF7860CD
:101AD0004FF0B043DA6C4FF0B0417B681343CB64F6
:101AE0004FF0B043DA6C7B681340FB60FB6800BFCB
:101AF0001437BD465DF8047B7047000080B582B0A6
:101B000000AF0346FB71FB79074A52F82300FB79CB
:101B1000064A32F813300122194600F0EDFB00BFEF
:101B20000837BD4680BD00BF040000209C4B000864
:101B300080B588B000AF03460A46FB711346BB71FF
:101B400007F10C0300221A605A609A60DA601A6189
:101B5000FB79002B03D10420FFF7B6FF0CE0FB79E3
:101B6000012B03D10820FFF7AFFF05E0FB79022B23
:101B700002D10820FFF7A8FFBB79002B17D1FB7912
:101B8000204A32F81330FB6000233B6101237B6164
:101B90000223BB61FB791C4A52F8233007F10C0287
:101BA0001146184600F038FA012000F001F9BB791F
:101BB000012B23D1FB79134A32F81330FB60012348
:101BC0007B614FF404133B61FB790F4A52F82330D9
:101BD00007F10C021146184600F01EFAFB790B4A79
:101BE000D35C5BB200220F21184600F0E0F9FB79CC
:101BF000064AD35C5BB2184600F0F3F900BF203709
:101C0000BD4680BDA44B000810000020AC4B00086E
:101C100080B400AF264B00229A60254BD3F8883061
:101C2000234A43F47003C2F888304FF0B0431B6876
:101C30004FF0B04243F0010313604FF0B0434FF454
:101C4000E0229A604FF0B0431A684FF0B041194B50
:101C500013400B604FF0B043D3F894304FF0B042D4
:101C600023F00503C2F894304FF0B043D3F8983016
:101C70004FF0B04223F00103C2F898304FF0B04368
:101C80000D4ADA604FF0B0430B4A1A614FF0B0438F
:101C90001B684FF0B04223F4802313604FF0B04331
:101CA00000229A6100BFBD465DF8047B704700BF0B
:101CB00000ED00E0FBFEF6FA0010042280B582B0D1
:101CC00000AF0023FB710C4B1B680B4A43F480737D
:101CD0001360032000F060F9002000F00FF80346C5
:101CE000002B02D00123FB7101E0FFF722FEFB79FC
:101CF00018460837BD4680BD0040005880B584B006
:101D000000AF78600023FB73174B1B78002B24D0A7
:101D100000F0E6FB0246144B1B7819464FF47A7329
:101D2000B3FBF1F3B2FBF3F3184600F068F9034696
:101D3000002B0FD17B680F2B09D8002279684FF058
:101D4000FF3000F034F9094A7B68136007E0012393
:101D5000FB7304E00123FB7301E00123FB73FB7BB6
:101D600018461037BD4680BD24000020200000200A
:101D700080B400AF064B1B781A46064B1B68134411
:101D8000044A136000BFBD465DF8047B704700BF86
:101D900024000020DC00002080B400AF034B1B684F
:101DA0001846BD465DF8047B704700BFDC0000208C
:101DB00080B584B000AF7860FFF7EEFFB8607B6855
:101DC000FB60FB68B3F1FF3F05D00A4B1B781A4656
:101DD000FB681344FB6000BFFFF7DEFF0246BB68F1
:101DE000D31AFA689A42F7D800BF00BF1037BD4631
:101DF00080BD00BF2400002080B485B000AF7860B3
:101E00007B6803F00703FB600C4BDB68BB60BA68C0
:101E10004FF6FF031340BB60FB681A02BB68134315
:101E200043F0BF6343F40033BB60044ABB68D36034
:101E300000BF1437BD465DF8047B704700ED00E03D
:101E400080B400AF044BDB681B0A03F0070318469D
:101E5000BD465DF8047B704700ED00E080B483B0C0
:101E600000AF0346FB7197F90730002B0BDBFB79C2
:101E700003F01F02074997F907305B09012000FAB8
:101E800002F241F8232000BF0C37BD465DF8047B09
:101E9000704700BF00E100E080B483B000AF0346AC
:101EA0003960FB7197F90730002B0ADB3B68DAB227
:101EB0000C4997F907301201D2B20B4483F8002382
:101EC0000AE03B68DAB20849FB7903F00F03043BF0
:101ED0001201D2B20B441A7600BF0C37BD465DF832
:101EE000047B704700E100E000ED00E080B489B0C1
:101EF00000AFF860B9607A60FB6803F00703FB612C
:101F0000FB69C3F10703042B28BF0423BB61FB69F2
:101F10000433062B02D9FB69033B00E000237B61FD
:101F20004FF0FF32BB6902FA03F3DA43BB681A4091
:101F30007B699A404FF0FF317B6901FA03F3D94383
:101F40007B680B40134318462437BD465DF8047B7D
:101F50007047000080B582B000AF78607B68013BBD
:101F6000B3F1807F01D301230FE00A4A7B68013B74
:101F700053600F214FF0FF30FFF78EFF054B00221B
:101F80009A60044B07221A60002318460837BD46A2
:101F900080BD00BF10E000E080B582B000AF786087
:101FA0007868FFF729FF00BF0837BD4680BD80B5C0
:101FB00086B000AF0346B9607A60FB73FFF740FF5D
:101FC00078617A68B9687869FFF790FF024697F9F7
:101FD0000F3011461846FFF75FFF00BF1837BD46A8
:101FE00080BD80B582B000AF0346FB7197F9073022
:101FF0001846FFF733FF00BF0837BD4680BD80B5E8
:1020000082B000AF78607868FFF7A4FF03461846F7
:102010000837BD4680BD000080B487B000AF78604F
:10202000396000237B614CE13B681A6801217B69C0
:1020300001FA03F31340FB60FB68002B00F03E81C4
:102040003B685B6803F00303012B05D03B685B68CA
:1020500003F00303022B30D17B689B683B617B69F3
:102060005B00032202FA03F3DB433A6913403B614E
:102070003B68DA687B695B0002FA03F33A69134351
:102080003B617B683A699A607B685B683B610122CF
:102090007B6902FA03F3DB433A6913403B613B6817
:1020A0005B681B0903F001027B6902FA03F33A69DA
:1020B00013433B617B683A695A603B685B6803F095
:1020C0000303032B17D07B68DB683B617B695B00F4
:1020D000032202FA03F3DB433A6913403B613B6896
:1020E0009A687B695B0002FA03F33A6913433B6128
:1020F0007B683A69DA603B685B6803F00303022B94
:1021000023D17B69DA087B68083253F822303B61BF
:102110007B6903F007039B000F2202FA03F3DB4302
:102120003A6913403B613B681A697B6903F0070316
:102130009B0002FA03F33A6913433B617B69DA08B7
:102140007B680832396943F822107B681B683B6161
:102150007B695B00032202FA03F3DB433A69134015
:102160003B613B685B6803F003027B695B0002FA3A
:1021700003F33A6913433B617B683A691A603B6831
:102180005B6803F44033002B00F09880544A7B696D
:102190009B08023352F823303B617B6903F0030351
:1021A0009B000F2202FA03F3DB433A6913403B61C1
:1021B0007B68B3F1904F19D07B684A4A934213D0A1
:1021C0007B68494A93420DD07B68484A934207D0C6
:1021D0007B68474A934201D1042308E0072306E0C5
:1021E000032304E0022302E0012300E000237A69D4
:1021F00002F00302920093403A6913433B6138496D
:102200007B699B0802333A6941F82320394B1B68EC
:102210003B61FB68DB433A6913403B613B685B68A9
:1022200003F48013002B03D03A69FB6813433B612E
:10223000304A3B6913602F4B5B683B61FB68DB43B3
:102240003A6913403B613B685B6803F40013002B61
:1022500003D03A69FB6813433B61264A3B695360EC
:10226000244BD3F880303B61FB68DB433A69134071
:102270003B613B685B6803F48033002B03D03A6911
:10228000FB6813433B611B4A3B69C2F88030194B22
:10229000D3F884303B61FB68DB433A6913403B6110
:1022A0003B685B6803F40033002B03D03A69FB689A
:1022B00013433B610F4A3B69C2F884307B690133A9
:1022C0007B613B681A687B6922FA03F3002B7FF479
:1022D000ABAE00BF00BF1C37BD465DF8047B704746
:1022E000000001400004004800080048000C0048BD
:1022F000001000480008005880B483B000AF786038
:102300000B467B8013467B707B78002B03D07A884A
:102310007B689A6102E07A887B689A6200BF0C371A
:10232000BD465DF8047B704780B400AF4FF0B0430A
:102330001B6803F48013B3F5801F01D1012300E073
:1023400000231846BD465DF8047B704780B483B017
:1023500000AF4FF0B0431B6803F0F0037B607B6875
:10236000B02B01D9B0237B607B6818460C37BD4683
:102370005DF8047B704780B400AF4FF0B0439B68BA
:1023800003F00C031846BD465DF8047B704780B42B
:1023900000AF4FF0B0439B6803F0F0031846BD4612
:1023A0005DF8047B704780B400AF4FF0B043DB684A
:1023B0001B0A03F07F031846BD465DF8047B704797
:1023C00080B400AF4FF0B043DB6803F060431846C1
:1023D000BD465DF8047B704780B400AF4FF0B0435A
:1023E000DB6803F070031846BD465DF8047B704758
:1023F00080B400AF4FF0B043DB6803F0030318462E
:10240000BD465DF8047B704790B585B000AFFFF71F
:10241000B2FF78607B68002B0AD1FFF797FF034675
:102420001B0903F00F032B4A52F82330FB604BE0EB
:102430007B68042B02D1284BFB6045E07B68082BAE
:102440000AD1FFF771FF0346012B02D1224BFB603B
:102450003AE0224BFB6037E0FFF7CAFF38603B6889
:10246000022B03D03B68032B03D00DE01A4BBB605B
:1024700015E0FFF759FF0346012B02D1164BBB6055
:102480000DE0164BBB600AE0FFF760FF03461B0937
:1024900003F00F030F4A52F82330BB6000BFFFF771
:1024A00082FF0246BB6803FB02F4FFF795FF034679
:1024B0001B090133B4FBF3F4FFF782FF03465B0F04
:1024C0000133B4FBF3F3FB60FB6818461437BD46D9
:1024D00090BD00BFF04B00080024F4000048E80164
:1024E00098B500AFFFF790FF0446FFF750FF034693
:1024F0001B0903F00F03034A52F82330B4FBF3F334
:10250000184698BDB04B000880B588B000AF786021
:1025100007F10C03FB61FB69002200214FF65240DA
:1025200000F082F97B68002B04D0FB690B331A7929
:102530007B681A70FB690B33DB7818462037BD4681
:1025400080BD80B58AB000AF7860396007F10C03B8
:102550003B62002387F827307B68002B07D03B6A5B
:102560007A681A6097F82730043387F827303B6879
:10257000002B08D03B6A04333A681A6097F827307A
:10258000043387F8273007F10C03FB6107F10C02D5
:1025900097F82710FB694FF6544000F045F9FB69A6
:1025A0000B33DB7818462837BD4680BD80B586B032
:1025B00000AF3B1D7B617B69002200214FF6554037
:1025C00000F032F97B690B33DB7818461837BD46CB
:1025D00080BD80B586B000AF3B1D7B617B6900226A
:1025E00000214FF65A4000F01FF97B690B33DB786E
:1025F00018461837BD4680BD80B48BB000AF7860F8
:1026000000233B610023FB6000237B6200233B62CD
:102610000023FB610023BB600023BB6100237B61BF
:102620004A4BDB6BC3F30D033B613B699B0003F13A
:10263000005303F540331B68BB60BB681B68444A0A
:1026400093420FD1BB685B697B62BB689B693B624D
:10265000BB68DB69FB61BB68DB68BB61BB681B698E
:102660007B611AE03B699B0003F1005303F54033A3
:10267000FB60FB681B681B697B62FB681B685B690E
:102680003B62FB681B689B69FB61FB681B685B68BE
:10269000BB61FB681B689B687B617B6A1B0EDAB2BF
:1026A0007B681A707B6A1B0CDAB27B685A707B6A93
:1026B0001B0ADAB27B689A707B6A1B09DBB203F0F3
:1026C0000F03DAB27B68DA707B6ADBB203F00F03C8
:1026D000DAB27B681A713B6A1B0EDAB27B685A71F8
:1026E0003B6A1B0CDAB27B689A713B6A1B0ADAB24E
:1026F0007B68DA713B6ADAB27B681A72FB69DAB21C
:102700007B685A72BB691B0EDAB27B689A72BB692E
:102710001B0CDAB27B68DA72BB691B0ADAB27B681F
:102720001A737B691B0EDAB27B685A737B691B0CC8
:10273000DAB27B689A737B69DAB27B68DA7300235A
:1027400018462C37BD465DF8047B704700400058A2
:10275000B95646A980B582B000AF786039603B6851
:102760005B68084A1360084A7B68D361064800F03A
:1027700011F93B681B68184600F094F800BF083751
:10278000BD4680BD00010020E000002080B584B07F
:1027900000AF224800F022F90346002B2BD1204B3A
:1027A0001B78002B27D007F10C0319461B4800F0BB
:1027B000A4F91C4BDB69002B0CD0FB68BB60012328
:1027C0003B71184BDB693A1D104698473A79144B18
:1027D0001A7002E0124B01221A70114B1B78002B69
:1027E00004D0FB68184600F0DBFA04E0FB681946E9
:1027F0000A4800F015F9094800F0F0F80346002BEC
:1028000007D1074B1B78002B03D00448FEF7CAFB07
:1028100000BF00BF1037BD4680BD00BF8C00002048
:102820009C000020E000002080B584B000AFBA60BA
:102830007B600346FB810B467B73002000F064F84D
:10284000164B1B68FA89A3F80920144B1B687A7B86
:10285000DA72124B1B680C337A7BB968184600F0A9
:102860007BFB0F4B1B6900210020984748F2E800D2
:10287000FEF7C8FB7B6803F10800084B1968074B9B
:102880001B689B7803331A4600F066FB012000F0BA
:102890003BF800BF1037BD4680BD00BF9800002048
:1028A000E000002080B586B000AF7860104A7B68F9
:1028B0001360104800F082F8012000F025F80E4B5C
:1028C00001221A700D4B1B68002B0CD07B687B61BA
:1028D0000B4BFB600B4B3B61084B1B6807F10C0279
:1028E0001046984700BF00BF1837BD4680BD00BFE7
:1028F000980000208C0000209C000020E0000020B8
:10290000592900087129000880B582B000AF03463C
:10291000FB71FB79002B0BD10D4B1B68002B03D0F7
:102920000B4B1B68002098470A4B00221A700BE0E3
:10293000084B01221A70064B1B68002B04D0044B75
:102940001B680120984700BF00BF0837BD4680BD07
:10295000000100209400002080B582B000AF7860B4
:102960000020FEF737FB00BF0837BD4680BD0000E2
:1029700080B582B000AF78607968054800F076F8DD
:102980000348FEF70FFB00BF0837BD4680BD00BF00
:102990008C00002080B483B000AF78607B68054A6B
:1029A0001A607B68044A1A6100BF0C37BD465DF8A7
:1029B000047B70472D2C0008812C000880B483B064
:1029C00000AF78607B687A681A607B687A685A60C2
:1029D00000BF0C37BD465DF8047B704780B487B0FC
:1029E00000AF7860EFF31083FB60FB683B6172B669
:1029F00000BF7B681B687A689A4202D10123FB758D
:102A000001E00023FB753B69BB60BB6883F3108862
:102A100000BFFB7D18461C37BD465DF8047B704740
:102A200080B487B000AF78603960EFF31083FB604B
:102A3000FB687B6172B600BF7B681A683B681A60EE
:102A40003B687A685A607B683A681A603B681B6822
:102A50003A685A607B693B613B6983F3108800BF29
:102A600000BF1C37BD465DF8047B704780B487B05B
:102A700000AF78603960EFF31083FB60FB687B6127
:102A800072B600BF3B687A681A607B685A683B6818
:102A90005A607B683A685A603B685B683A681A60BB
:102AA0007B693B613B6983F3108800BF00BF1C3723
:102AB000BD465DF8047B704780B487B000AF786096
:102AC000EFF31083FB60FB687B6172B600BF7B682D
:102AD0005B687A6812681A607B681B687A6852685B
:102AE0005A607B693B613B6983F3108800BF00BF7C
:102AF0001C37BD465DF8047B704780B586B000AFDB
:102B000078603960EFF31083FB60FB687B6172B61D
:102B100000BF7B681A683B681A607B681B681846B0
:102B2000FFF7CAFF7B693B613B6983F3108800BFF5
:102B300000BF1837BD4680BD80B500AFFDF7F2FC81
:102B400000BF80BD80B500AF104B114A1A600F4B1B
:102B5000104A5A600D4B104A9A600C4B0F4A1A6289
:102B60000A4B0F4A5A62094B0E4ADA60074B0E4A6B
:102B70001A61064B0D4A5A61044B0D4A9A61034B88
:102B80000C4ADA61FDF7D4FC00BF80BD00000320D1
:102B9000280003204800032058000320640003207D
:102BA0006C000320740003207C00032098000320A5
:102BB0009C000320A800032080B582B000AF1CE079
:102BC0003B1D19461248FFF798FF7B685B7A0F2B75
:102BD00003D07B685B7A0E2B05D17B6819460220F7
:102BE00000F03AF904E07B681946032000F034F95C
:102BF000084B1B687A68104698470548FFF7EEFEB9
:102C00000346002BDCD000BF0837BD4680BD00BFA7
:102C1000C40003200C01002080B500AF024B1B68EC
:102C2000984700BF80BD00BF1001002080B584B070
:102C300000AF78607B68FB600D48FFF7BFFE0D4B6F
:102C4000DB68BB60FB689A68BB681A60BB68084AAF
:102C50005A60FDF79BFCFB681B68074A1360FB6822
:102C60005B68064A1360002318461037BD4680BDD6
:102C7000CC000320000003201401002018010020D4
:102C800080B582B000AF78600B467B80094BDB6873
:102C90001B6810221A72074BDB681B681946042058
:102CA00000F0DAF8FDF77CFC002318460837BD4633
:102CB00080BD00BF0000032080B500AF074BDB687C
:102CC0001B681946052000F0C7F8054B1B68034A2E
:102CD000D26812681046984700BF80BD00000320EC
:102CE0001401002080B582B000AF0EE03B1D1946F4
:102CF0000B48FFF702FF7B681946062000F0ACF88E
:102D0000084B1B687A68104698470548FFF766FE2F
:102D10000346002BEAD000BF0837BD4680BD00BF88
:102D2000CC0003201801002080B582B000AF78608D
:102D30001748FFF743FE1748FFF740FE164B1B6985
:102D4000164A1360154B1B687A6892689A60134B99
:102D50001B687A68D268DA60104B1B680C4A1A61EB
:102D60000E4B1B687A6812681A600C4B1B687A68F5
:102D700052685A60094B1B687A6812695A61074B9E
:102D80001B687A6852699A6100BF0837BD4680BDEA
:102D9000B400032004010020000003201C010020D7
:102DA00080B582B000AF786079680748FFF75EFEB3
:102DB0007968002000F050F80448FDF717FC00BFC8
:102DC0000837BD4680BD00BF04010020D12D00089A
:102DD00080B582B000AF0CE03B1D19460A48FFF7F2
:102DE0008CFE0A4B1B691B697A6811461846FFF76F
:102DF0003DFE0548FFF7F2FD0346002BECD000BF77
:102E00000837BD4680BD00BF04010020000003203C
:102E100080B582B000AF08E03B1D19460848FFF7B7
:102E20006CFE7B68184600F00DF80548FFF7D6FDEC
:102E30000346002BF0D000BF0837BD4680BD00BF61
:102E4000BC00032080B483B000AF786000BF0C37B3
:102E5000BD465DF8047B704780B485B000AF034683
:102E60003960FB71FB79062B45D801A252F823F09B
:102E70008D2E0008B12E0008B72E0008CB2E0008BA
:102E8000D72E0008DD2E0008EB2E00083B68FB6003
:102E9000FB685B7AFF2B05D0FF2B05DC0E2B05D0E2
:102EA0000F2B01E000BF27E000BF25E000BF23E0BB
:102EB0003B68BB6020E03B68FB60FB685B7A0E2BE5
:102EC00001D00F2B00E000BF16E03B68FB60FB6801
:102ED0005B7AFF2B10E03B68BB600DE03B68FB605A
:102EE000FB685B7A0E2B00BF06E03B68FB60FB686B
:102EF0005B7AFF2B00E000BF00BF1437BD465DF8D2
:102F0000047B7047014B1868704700BF2800002001
:102F100070B50D4D0D4C641BA4100026A64209D1BE
:102F20000B4D0C4C01F032F8641BA4100026A64295
:102F300005D170BD55F8043B98470136EEE755F8CA
:102F4000043B98470136F2E7C84C0008C84C00081B
:102F5000C84C0008CC4C00080A44914200F1FF33F1
:102F600000D1704710B511F8014B03F8014F9142A1
:102F7000F9D110BD02440346934200D1704703F8D3
:102F8000011BF9E70FB40A4B13B51C6824B1A36900
:102F900013B9204600F05EFA05AB049AA1680193CC
:102FA000204600F067FC02B0BDE8104004B0704756
:102FB0002800002070B50E46054618B183690BB98C
:102FC00000F048FAAB69AC6813B9284600F042FA41
:102FD0002C4B9C4220D16C68636EDB0705D4A3891F
:102FE000980502D4A06D00F0D3FAA38919071DD566
:102FF0002369DBB1013EA36816F8011F013BA36002
:1030000039BB002B38DA22460A21284600F048F85E
:10301000013011D00A2511E01B4B9C4201D1AC6854
:10302000DAE71A4B9C4208BFEC68D5E721462846F0
:1030300000F088F80028DDD04FF0FF35636EDA0726
:1030400005D4A3899B0502D4A06D00F0A2FA2846FE
:1030500070BD002B04DAA2699A4206DC0A2904D06A
:1030600023685A1C22601970C5E72246284600F0E2
:1030700017F80130BFD1DFE723680A255A1C226008
:103080001D70DBE7544C0008744C0008344C0008F9
:10309000024B01461868FFF78DBF00BF28000020D3
:1030A000F8B50E461446054618B183690BB900F011
:1030B000D1F9214B9C422BD16C68A369A360A389F1
:1030C0001A072FD523696BB323692068C01A636977
:1030D000F6B28342374604DC2146284600F026F942
:1030E00030BBA368013BA36023685A1C22601E709A
:1030F00063690130834204D0A389DB0706D50A2E19
:1031000004D12146284600F011F988B93846F8BDA7
:103110000A4B9C4201D1AC68CFE7094B9C4208BFE7
:10312000EC68CAE72146284600F00CF80028CBD00E
:103130004FF0FF37EAE700BF544C0008744C00081A
:10314000344C0008324B70B51D6806460C4625B15C
:10315000AB6913B9284600F07DF92E4B9C420FD184
:103160006C68A389B4F90C2019072CD4DD0611D49E
:103170000923336042F04003A3814FF0FF303EE06B
:10318000254B9C4201D1AC68EBE7244B9C4208BF25
:10319000EC68E6E7580712D5616B41B104F14403CE
:1031A000994202D0304600F05BFA00236363A389A2
:1031B00023F02403A3810023636023692360A38990
:1031C00043F00803A38123694BB9A38903F4207357
:1031D000B3F5007F03D02146304600F001FAA08904
:1031E000B4F90C2010F001030AD00023A360636936
:1031F0005B42A361236943B910F08000BAD170BD6E
:10320000810758BF6369A360F4E70020F7E700BFB8
:1032100028000020544C0008744C0008344C00086E
:103220008A892DE9F041054610070C4658D44B68B1
:10323000002B05DC0B6C002B02DC0020BDE8F081CC
:10324000E66A002EF9D0002312F480522F682B601A
:1032500032D0606DA3895A0705D56368C01A636BC5
:103260000BB1236CC01A00230246E66A216A284685
:10327000B047431CA38906D129681D292CD82A4AA6
:10328000CA40D60728D500226260D904226922608C
:1032900004D5421C01D12B6803B96065616B2F60B6
:1032A0000029CAD004F14403994202D0284600F014
:1032B000D7F900206063C1E7216A01232846B0479F
:1032C000411CC7D12B68002BC4D01D2B01D0162B5D
:1032D00001D12F60B1E7A38943F04003A381ADE79B
:1032E0000F69002FA9D093070E6808BF4B690F60C4
:1032F00018BF0023A6EB07088B60B8F1000F9CDD18
:10330000216AA66A43463A462846B047002806DCAA
:10331000A38943F04003A3814FF0FF308EE70744B9
:10332000A8EB0008E9E700BF0100402038B50B69B1
:1033300005460C4613B90025284638BD18B18369E7
:103340000BB900F087F8144B9C421BD16C68B4F9A0
:103350000C30002BEFD0626ED00704D4990502D454
:10336000A06D00F015F928462146FFF759FF636E5E
:10337000DA070546E0D4A3899B05DDD4A06D00F0F3
:1033800008F9D9E7054B9C4201D1AC68DFE7044B53
:103390009C4208BFEC68DAE7544C0008744C000803
:1033A000344C0008002310B50446C0E90033C0E9DE
:1033B0000433836081814366C28183611946082298
:1033C0005C30FFF7D7FD054B6362054BA362054BED
:1033D000E362054B2462236310BD00BF1D3E00085D
:1033E0003F3E0008773E00089B3E0008014900F080
:1033F000AFB800BF2D33000870B568224D1E55438D
:103400000E4605F1740100F097F9044640B1002121
:10341000C0E900160C30A06005F16802FFF7AAFDB4
:10342000204670BD014800F0B3B800BF2101002064
:10343000014800F0AEB800BF21010020014800F0B3
:10344000A7B800BF22010020014800F0A2B800BFC9
:103450002201002010B50446FFF7F0FFA3691BB15D
:10346000BDE81040FFF7F0BFC4E912332365134BEA
:10347000134A1B68A262A34204BF0123A361204632
:1034800000F020F86060204600F01CF8A0602046A4
:1034900000F018F80022E06004216068FFF782FF66
:1034A000A06801220921FFF77DFFE06802221221B6
:1034B000FFF778FF0123A361D2E700BF304C00087B
:1034C000ED330008F8B50746FFF7ACFF1E4B1E684A
:1034D000B36913B93046FFF7BDFF4836D6E901346A
:1034E000013B03D533680BB33668F7E7B4F90C50EA
:1034F000D5B9164BE36004F15800656600F047F853
:10350000FFF796FFC4E90155C4E904552560A5619C
:103510000822294604F15C00FFF72CFDC4E90D5593
:10352000C4E912552046F8BD6834D9E7042138466D
:10353000FFF762FF044630600028D5D1FFF778FF1F
:103540000C233B60EEE700BF304C00080100FFFF9A
:103550002DE9F8430646884600F148040027D4E9DF
:103560000195B9F1010905D52468002CF7D1384639
:10357000BDE8F883AB89012B07D9B5F90E300133CB
:1035800003D029463046C04707436835E9E770470E
:103590007047704770B50E46B1F90E10002996B00D
:1035A00014461D4608DAB6F90C3000222A601A06C5
:1035B00010D44FF480630EE06A4600F095FC0028BA
:1035C000F1DB019A02F47042A2F500535A425A41CB
:1035D0002A60EEE740230020236016B070BD000093
:1035E0008B8973B59D0706460C4607D504F1470342
:1035F000236023610123636102B070BD01AB6A46A1
:10360000FFF7C8FF00990546304600F095F848B925
:10361000B4F90C309A05EFD423F0030343F002030E
:10362000A381E3E70D4BB362A389206043F08003DD
:10363000A381009B6361019B20615BB1B4F90E1013
:10364000304600F063FC28B1A38923F0030343F064
:103650000103A381A0890543A581CDE7ED330008CF
:1036600037B5002944D051F8043C0190002BA1F15A
:103670000404B8BFE41800F06BFC1E4A01981368FC
:1036800033B96360146003B0BDE8304000F066BC3D
:10369000A34208D9256861198B4201BF19685B688C
:1036A00049192160EDE71A465B680BB1A342FAD9CC
:1036B00011685518A5420BD1246821445418A3421F
:1036C0001160E0D11C685B68536021441160DAE747
:1036D00002D90C230360D6E7256861198B4204BF29
:1036E00019685B68636004BF491921605460CAE7C8
:1036F00003B030BD2401002070B50E4E0C46316879
:10370000054611B900F07AFB30602146284600F0EA
:1037100075FB431C0AD0C41C24F00304A04207D04C
:10372000211A284600F06AFB013001D14FF0FF3426
:10373000204670BD280100202DE9F041CD1C25F068
:10374000030508350C2D38BF0C25002D074601DB7D
:10375000A94205D90C233B6000263046BDE8F08124
:103760002E4E00F0F5FB33681C4634BB2946384624
:10377000FFF7C2FF431C04464DD134682646002E95
:1037800040D123683146384604EB030800F036FB8D
:1037900080453AD1216803356D1A25F003050835B7
:1037A0000C2D38BF0C2529463846FFF7A5FF013000
:1037B0002BD023682B4423600EE02268521B1ED4BA
:1037C0000B2A16D96119A342256018BF5960636896
:1037D00008BF316062514B60384604F10B0600F0BF
:1037E000BDFB26F00706231DF21AB6D09B1BA35083
:1037F000B3E76268A3420CBF32605A60ECE723462D
:103800006468B2E734467668B9E70C233B60384613
:1038100000F0A4FBA1E72560DEE700BF2401002043
:103820009368013B002B10B4936008DA9469A342BB
:1038300001DB0A2903D15DF8044BFFF731BC1368A3
:10384000581C1060197008465DF8044B7047F8B5B5
:1038500006460F461446D518AC4201D1002007E0B9
:1038600014F8011B3A463046FFF7DAFF431CF3D148
:10387000F8BD00002DE9F04F0D469DB01446984666
:10388000064618B183690BB9FFF7E4FD894B9D42E9
:103890001BD175686B6ED90705D4AB899A0502D424
:1038A000A86DFFF775FEAB891B0701D52B69EBB936
:1038B00029463046FFF746FCC0B16B6EDC070ED5DB
:1038C0004FF0FF301DB0BDE8F08F7B4B9D4201D122
:1038D000B568DFE7794B9D4208BFF568DAE7AB8949
:1038E0009805EDD4A86DFFF754FEE9E7002309938E
:1038F00020238DF82930CDF80C803023DFF8C081EB
:103900008DF82A304FF0010923469A4613F8012B0F
:103910000AB1252AF9D1BAEB040B0BD05B4622463B
:1039200029463046FFF793FF013000F0AA80099A3C
:103930005A4409929AF80030002B00F0A28000232C
:103940004FF0FF32CDE905230AF1010A04930793F2
:103950008DF853301A935446052214F8011B584829
:10396000FCF70EFC049AD8B9D10644BF20238DF889
:103970005330130744BF2B238DF853309AF800308F
:103980002A2B15D0079A544600204FF00A0C2146E6
:1039900011F8013B303B092B4ED9B0B1079214E02E
:1039A000A0EB080309FA03F313430493A246D2E7FA
:1039B000039B191D1B680391002BBBBF5B4242F0A8
:1039C000020207930793B8BF049223782E2B0CD1E1
:1039D00063782A2B35D1039B1A1D1B680392002B99
:1039E000B8BF4FF0FF3302340593DFF8E4A021782D
:1039F00003225046FCF7C4FB40B14023A0EB0A0071
:103A000003FA00F0049B03430134049314F8011BF0
:103A10002C488DF828100622FCF7B2FB00283FD076
:103A2000294B1BBB039B073323F007030833039386
:103A3000099B3B44099367E70CFB02320C460120CB
:103A4000A5E700230134059319464FF00A0C2046E0
:103A500010F8012B303A092A03D9002BC5D0059163
:103A6000C3E70CFB012104460123F0E703AB0093FD
:103A70002A46164B04A93046AFF300800746781C4F
:103A8000D6D16B6ED90705D4AB899A0502D4A86D3F
:103A9000FFF77FFDAB895B063FF512AF099811E791
:103AA00003AB00932A46094B04A9304600F080F886
:103AB000E4E700BF544C0008744C0008344C000884
:103AC000944C00089E4C0008000000004F3800088D
:103AD0009A4C00082DE9F047164699468A680B690A
:103AE000DDF820809342B8BF1346336091F843203D
:103AF00007460C460AB1013333602368990642BF7A
:103B0000336802333360256815F0060506D104F1E9
:103B1000190AE36832689B1AAB4226DC94F843200A
:103B2000131E226818BF012392062BD404F143020E
:103B300049463846C04701301ED02368E5683268E0
:103B400003F00603042B08BFAD1AA36822690CBF5B
:103B500025EAE57500259342C4BF9B1AED1800269F
:103B60001A34B5421AD1002008E0012352464946D2
:103B70003846C047013003D14FF0FF30BDE8F08731
:103B80000135C6E7E1185A1C302081F84300224471
:103B900094F8451082F843100233C7E70123224608
:103BA00049463846C0470130E6D00136D9E7000023
:103BB0002DE9FF470F7E0C9D782F914680460C46DD
:103BC0009A4601F1430207D8622F0AD8002F00F06D
:103BD000D880582F00F0A38004F1420584F8427089
:103BE0003AE0A7F16303152BF6D801A151F823F0B1
:103BF000493C00085D3C0008D93B0008D93B00085F
:103C0000D93B0008D93B00085D3C0008D93B0008BF
:103C1000D93B0008D93B0008D93B0008693D0008A2
:103C20008D3C00084B3D0008D93B0008D93B0008FB
:103C30008B3D0008D93B00088D3C0008D93B0008AB
:103C4000D93B0008533D00082B681A1D1B682A60E9
:103C500004F1420584F842300123A3E0206829687A
:103C6000060601F104030AD50E682B60002E03DA64
:103C70002D23764284F843305E480A2319E00E680B
:103C80002B6010F0400F18BF36B2EFE72B682068AA
:103C9000191D2960010601D51E6802E04606FBD504
:103CA0001E8854486F2F0CBF08230A23002184F874
:103CB00043106568A560002DA2BF216821F00401B2
:103CC00021600EB9002D4DD01546B6FBF3F103FB74
:103CD0001167C75D05F8017D3746BB420E46F4D932
:103CE000082B0BD12368DE0708D523696168994248
:103CF000DEBF302305F8013C05F1FF35521B226180
:103D0000CDF800A04B4603AA21464046FFF7E2FE4D
:103D100001304CD14FF0FF3004B0BDE8F08735489A
:103D200081F845702968236851F8046B29601D06E5
:103D300014D5DF0744BF43F0200323601EB9236876
:103D400023F0200323601023B0E7236843F020030F
:103D500023607823284884F84530E3E7590648BFB4
:103D6000B6B2E6E71546BBE72B6826686169181D01
:103D7000286035061B6801D5196002E07006FBD586
:103D80001980002323611546BAE72B681A1D2A60A3
:103D90001D68626800212846FCF7F2F908B1401B53
:103DA000606063682361002384F84330A8E72369D7
:103DB0002A4649464046D0470130ABD023689B078E
:103DC00013D4E068039B9842B8BF1846A4E70123C8
:103DD000324649464046D04701309BD00135E36822
:103DE00003995B1AAB42F2DCEBE7002504F11906FC
:103DF000F5E700BFA54C0008B64C000838B5064DE5
:103E00000023044608462B60FDF732FE431C02D116
:103E10002B6803B1236038BD2C01002010B50C467F
:103E2000B1F90E1000F0A0F80028ABBF636DA389B4
:103E30001B1823F48053ACBF6365A38110BD2DE92B
:103E4000F0411F468B89DB0505460C46164605D515
:103E5000B1F90E100223002200F068F8A389B4F92A
:103E60000E1023F48053A38132463B462846BDE81A
:103E7000F04100F017B810B50C46B1F90E1000F083
:103E800055F8431CA38915BF606523F4805343F4A0
:103E90008053A38118BFA38110BDB1F90E1000F0AB
:103EA00013B8000038B5074D0446084611460022F5
:103EB0002A601A46FDF78CFD431C02D12B6803B122
:103EC000236038BD2C01002038B5064D0023044680
:103ED00008462B60FDF798FD431C02D12B6803B107
:103EE000236038BD2C01002038B5074D002304465F
:103EF000084611462B60FDF793FD431C02D12B6849
:103F000003B1236038BD00BF2C01002038B5064D39
:103F10000023044608462B60FDF792FD431C02D1A6
:103F20002B6803B1236038BD2C01002038B5074D44
:103F300004460846114600222A601A46FDF78BFD0A
:103F4000431C02D12B6803B1236038BD2C01002033
:103F50000148FFF71DBB00BF200100200148FFF70B
:103F600018BB00BF2001002038B5074D04460846A5
:103F7000114600222A601A46FDF70DFD431C02D1AE
:103F80002B6803B1236038BD2C010020F8B500BFB9
:103F9000F8BC08BC9E467047F8B500BFF8BC08BC2A
:043FA0009E46704782
:103FA4000D0000002A2A2A2A2A2A2A2A2A2A2A2A08
:103FB4002A2A2A2A2A2A2A2A2A2A2A2A2A2A2A2A5D
:103FC4002A2A2A2A2A2A2A2A2A2A2A0D0000000012
:103FD4002A2A2A2A2A2A20465553204F70657261BC
:103FE400746F72204C6974652056312E31312E3035
:103FF400202A2A2A2A2A2A0D000000004442473E89
:104004004D435520696E666F0D0000002020524517
:10401400565F4944203D2030782530346C780D0AB1
:104024000000000020204445565F4944203D2030D4
:10403400782530336C780D0A000000002020464CAF
:104044004153485F53495A45203D20253464206B31
:10405400420D0A0020205041434B414745203D205A
:10406400307825780D0A00004442473E4F70746949
:104074006F6E2062797465730D0000002020534632
:104084005341203D2030782530326C780D0A0000F1
:10409400202053425256203D2030782530356C780C
:1040A4000D0A00004442473E496E697469616C69B7
:1040B4007A696E6720435055320D00004442473EF2
:1040C4004E657720636F6D6D616E64207B20307860
:1040D4002530386C78204E2830783034256C782997
:1040E400207D0D0A000000004442473E4E6F2063CD
:1040F4006F6D6D616E64207B2030782530386C786C
:10410400204E2830782530386C7829207D0D0A001F
:104114004442473E57616974696E6720666F722036
:10412400636F6D6D616E642E2E2E0D004442473E0A
:104134004350553220696E697469616C697A6564AB
:104144000D0000004442473E576972656C65737305
:104154002046572072756E6E696E67206F6E20431D
:104164005055320D000000004442473E465553204E
:1041740046572072756E6E696E67206F6E204350CD
:1041840055320D004442473E444954203D207B2093
:10419400307800002530325800000000207D0D00EA
:1041A4004442473E465553204657205625642E2503
:1041B400642E25640D0A00004442473E5769726527
:1041C4006C6573732046572074797065205B2042B8
:1041D4004C455F5354414E44415244205D0D000010
:1041E4004442473E576972656C6573732046572095
:1041F40074797065205B20424C455F484349205DDB
:104204000D0000004442473E576972656C65737344
:104214002046572074797065205B20424C455F4CE2
:1042240049474854205D0D004442473E5769726532
:104234006C6573732046572074797065205B205435
:1042440048524541445F465444205D0D000000003F
:104254004442473E576972656C6573732046572024
:1042640074797065205B205448524541445F4D5435
:1042740044205D0D000000004442473E57697265CA
:104284006C6573732046572074797065205B205ADF
:1042940049474245455F464644205D0D0000000005
:1042A4004442473E576972656C65737320465720D4
:1042B40074797065205B205A49474245455F5246F0
:1042C40044205D0D000000004442473E576972657A
:1042D4006C6573732046572074797065205B2038B1
:1042E40030322E31352E34204D4143205D0D0000F7
:1042F4004442473E576972656C6573732046572084
:1043040074797065205B20424C455F5448524541A6
:10431400445F4654445F535441544943205D0D0067
:104324004442473E576972656C6573732046572053
:1043340074797065205B20554E4B4E4F574E207B51
:1043440020307825303258207D205D0D0A00000091
:104354004442473E576972656C6573732046572023
:104364005625642E25642E25642E25640D0A00002E
:104374004442473E4E6F20576972656C65737320E3
:10438400465720697320696E7374616C6C65640DA3
:10439400000000004442473E45786563757465201B
:1043A40046555320476574537461746520636F6D7B
:1043B4006D616E640D0000004442473E534843491A
:1043C4005F43325F4655535F476574537461746548
:1043D40028292072657475726E65642046555320D1
:1043E4007374617465206572726F72207B203078FB
:1043F40025303258207D206F7220576972656C65B4
:1044040073732046572072756E6E696E67203D3E49
:1044140020737769746368696E6720746F204655EA
:10442400530D0A004442473E534843495F43325FB9
:104434004655535F47657453746174652829207227
:10444400657475726E656420776972656C657373E3
:10445400206669726D776172652075706772616438
:1044640065206F6E676F696E67207B20307825301A
:104474003258207D0D0A00004442473E53484349C8
:104484005F43325F4655535F476574537461746587
:1044940028292072657475726E6564204655532010
:1044A40075706772616465206F6E676F696E6720EF
:1044B4007B20307825303258207D0D0A0000000022
:1044C4004442473E534843495F43325F4655535F36
:1044D4004765745374617465282920726574757214
:1044E4006E65642046555320736572766963652052
:1044F4006F6E676F696E67207B2030782530325885
:10450400207D0D0A000000004442473E53484349C1
:104514005F43325F4655535F4765745374617465F6
:1045240028292072657475726E65642069646C65EF
:10453400207B20307825303258207D0D0A00000081
:104544004442473E4C617374206F706572617469B4
:104554006F6E2072657475726E6564207769746815
:1045640020756E6B6E6F776E2076616C7565207B3F
:1045740020307825303258207D0D0A004442473ED1
:10458400465553207374617465206572726F72208E
:1045940030783030205B204655535F5354415445A6
:1045A4005F4E4F5F4552524F52205D0D0000000098
:1045B4004442473E465553207374617465206572C6
:1045C400726F722030783031205B204655535F5330
:1045D400544154455F494D475F4E4F545F464F55D4
:1045E4004E44205D0D0000004442473E4655532092
:1045F4007374617465206572726F72203078303222
:10460400205B204655535F53544154455F494D4701
:104614005F434F5252555054205D0D004442473E73
:10462400465553207374617465206572726F7220ED
:1046340030783033205B204655535F535441544502
:104644005F494D475F4E4F545F41555448454E5462
:104654004943205D0D0000004442473E4655532027
:104664007374617465206572726F722030783034AF
:10467400205B204655535F53544154455F4E4F547D
:104684005F454E4F5547485F5350414345205D0DAC
:10469400000000004442473E465553207374617441
:1046A40065206572726F722030783035205B204649
:1046B40055535F53544154455F494D475F555352D9
:1046C40041424F5254205D0D000000004442473ED9
:1046D400465553207374617465206572726F72203D
:1046E40030783036205B204655535F53544154454F
:1046F4005F494D475F455253454552524F52205DE5
:104704000D0000004442473E4655532073746174C3
:1047140065206572726F722030783037205B2046D6
:1047240055535F53544154455F494D475F57525465
:10473400454552524F52205D0D0000004442473E11
:10474400465553207374617465206572726F7220CC
:1047540030783038205B204655535F5354415445DC
:104764005F415554485F5441475F53545F4E4F5423
:10477400464F554E44205D0D000000004442473E24
:10478400465553207374617465206572726F72208C
:1047940030783039205B204655535F53544154459B
:1047A4005F415554485F5441475F435553545F4EEE
:1047B4004F54464F554E44205D0D00004442473E41
:1047C400465553207374617465206572726F72204C
:1047D40030783041205B204655535F535441544553
:1047E4005F415554485F4B45595F4C4F434B4544DB
:1047F400205D0D004442473E465553207374617456
:1048040065206572726F722030783131205B2046EA
:1048140055535F53544154455F46575F524F4C4C78
:104824004241434B5F4552524F52205D0D00000000
:104834004442473E46555320737461746520657243
:10484400726F722030784645205B204655535F5383
:10485400544154455F4E4F545F52554E4E494E4756
:10486400205D0D004442473E4655532073746174E5
:1048740065206572726F722030784646205B204650
:1048840055535F53544154455F4552524F525F55FF
:104894004E4B4E4F574E205D0D0000004442473EA4
:1048A40046697273742074696D65207573652C2074
:1048B400747269676765722052455345540D000050
:1048C4004442473E457865637574652046555320D8
:1048D400467744656C65746520636F6D6D616E64C5
:1048E4000D0000004442473E534843495F43325F52
:1048F4004655535F467744656C6574652829207274
:10490400657475726E656420776974682065727267
:104914006F7220636F6465207B20307825303258B5
:10492400207D0D0A000000004442473E534843499D
:104934005F43325F4655535F467744656C657465E3
:1049440028292065786563757465642077697468BF
:1049540020737563636573730D0000004442473E22
:1049640045786563757465204655532046775570C0
:10497400677261646520636F6D6D616E640D000024
:104984004442473E534843495F43325F4655535F71
:10499400467755706772616465282920726574755D
:1049A400726E65642077697468206572726F722014
:1049B400636F6465207B20307825303258207D0D6C
:1049C4000A0000004442473E534843495F43325F74
:1049D4004655535F46775570677261646528292090
:1049E4006578656375746564207769746820737588
:1049F40063636573730D00004442473E4578656305
:104A0400757465204655532053746172745773202E
:104A1400636F6D6D616E640D000000004442473E9B
:104A2400534843495F43325F4655535F5374617241
:104A340074577328292072657475726E65642077C3
:104A4400697468206572726F7220636F6465207B7D
:104A540020307825303258207D0D0A004442473EEC
:104A6400534843495F43325F4655535F5374617201
:104A74007457732829206578656375746564207795
:104A840069746820737563636573730D00000000B7
:104A94004442473E556E737570706F72746564203E
:104AA400636F6D6D616E64207B2030782530386CC7
:104AB40078204E2830782530386C7829207D0D0AEE
:104AC400000000004442473E202846775570677234
:104AD400616465290D0000004442473E2028467762
:104AE4005374617274290D004442473E202846776E
:104AF40044656C657465290D000000004442473E1E
:104B0400526573657420284F424C290D0000000043
:104B14004442473E52657365742028534F465457A8
:104B2400415245290D0000004442473E52657365D9
:104B34007420284E5253542050494E290D00000031
:104B44004442473E526573657420286F74686572E9
:104B5400290D00004442473E212121204E4D492089
:104B64002121210D000000004442473E2121212043
:104B7400486172644661756C74202121210D000026
:104B8400010002000400060008000A000C001000E6
:104B9400200040008000000120000100020000000D
:104BA40010000100020000000A06070001000000D6
:104BB40003000000050000000100000001000000E7
:104BC400060000000A0000002000000002000000AF
:104BD4000400000008000000100000004000000075
:104BE400800000000001000000020000A086010017
:104BF400400D0300801A060000350C0040420F00EF
:104C040080841E0000093D0000127A000024F40094
:104C140000366E010048E801006CDC020000000070
:104C24000000000000000000000000002C00002034
:104C34000000000000000000000000000000000070
:104C44000000000000000000000000000000000060
:104C54000000000000000000000000000000000050
:104C64000000000000000000000000000000000040
:104C74000000000000000000000000000000000030
:104C84000000000000000000000000000000000020
:104C9400232D302B2000686C4C0065666745464721
:104CA40000303132333435363738394142434445A4
:104CB4004600303132333435363738396162636413
:044CC4006566000021
:044CC800650100087A
:044CCC00410100089A
:104CD00000040048000400480004004800080048A0
:104CE000000C0048000C004800093D0010000000C6
:104CF000010000002C00002000000000544C0008BF
:104D0000744C0008344C0008000000000000000053
:104D10000000000000000000000000000000000093
:104D20000000000000000000000000000000000083
:104D30000000000000000000000000000000000073
:104D40000000000000000000000000000000000063
:084D500000000000000000005B
:104D5800000000000000000000000000000000004B
:014D6800004A
:0400000508000239B4
:00000001FF
