:020000040800F2
:10000000280400201D1000083D1000083F100008C3
:10001000411000084D1000085110000800000000B9
:100020000000000000000000000000004310000875
:1000300045100008000000004710000849100008A3
:1000400055100008591000085D10000861100008E4
:1000500065100008691000086D1000087110000894
:1000600075100008791000087D1000088110000844
:1000700085100008891000088D10000891100008F4
:1000800095100008991000089D100008A1100008A4
:10009000A5100008A9100008AD100008B110000854
:1000A000B5100008B9100008BD100008C110000804
:1000B000C5100008C9100008CD100008D1100008B4
:1000C000D5100008D9100008DD100008E110000864
:1000D000E5100008E9100008ED100008F110000814
:1000E000F5100008F9100008FD10000801110008C3
:1000F00005110008091100080D1100081111000870
:1001000015110008191100081D110008211100081F
:1001100025110008291100082D11000831110008CF
:1001200035110008391100083D110008411100087F
:1001300045110008491100084D1100084FF0B0406A
:10014000006800F0F000B02888BFB0207047DFF8EA
:10015000A8070068000100F0F00070472DE9F041A9
:1001600004004BD0207881064FF0B04534D5A86804
:10017000E96810F00C0001F0030103D00C2808BF5F
:1001800001293DD1E069002838D0FFF7D7FF616A27
:1001900088420CD2084600F063FB00282ED1296863
:1001A000606A21F0F001014300F01AFA09E02868C2
:1001B00020F0F000014300F013FA606A00F050FBF9
:1001C000E0B900F03EFBDFF834170860DFF83407D1
:1001D000006800F0CBFB88B92078C10768D5A86813
:1001E000E96800F00C00082801F0030103D00C2896
:1001F00008BF032934D16068002859D10120EDE1FE
:10020000E069E8B1296841F0010100F0D5FA06463D
:100210002868800706D400F0CBFB801B0328F7D3A7
:100220000320DBE12868616A20F0F00008432860C1
:100230006868216A20F47F4040EA01206860CBE7CB
:1002400028684008400000F078FB0646286840080F
:10025000C007C1D500F0ACFB801B0328F6D3DFE755
:100260006068B0F5803F04D1296841F4803129608D
:1002700003E0286820F480302860606858B100F0FE
:1002800097FB06462868800312D400F091FB801B80
:100290006528F7D3C4E700F08BFB06462868400CBE
:1002A000C00705D500F084FB801B6528F6D3B7E7AF
:1002B0002078810715D5A868E96800F00C000428AB
:1002C00001F0030103D00C2808BF022928D1E068FF
:1002D000002893D06868216920F0FE4040EA016060
:1002E00068602168DFF8206611F0180F00F08B803D
:1002F0006069002877D0C806706858D5800730D468
:10030000716841F00101716000F052FB07467068AE
:10031000800726D400F04CFBC01B0328F7D37FE7EF
:10032000E06870B1296841F4807100F045FA064632
:1003300028684005CED400F03BFB801B0328F7D390
:100340006EE7286820F4807000F0F7FA0646286807
:10035000800AC007C5D500F02BFB801B0328F6D30D
:100360005EE7706840F0040000F043F907467068EB
:10037000000705D400F01CFBC01B0428F7D34FE78F
:100380007068A16920F4706040EA012070607068B4
:100390004008400000F02DF9074670684008C0078B
:1003A00031D500F005FBC01B0328F6D338E740F039
:1003B000010000F01EF907467068800705D400F0C0
:1003C000F7FAC01B0328F7D32AE7706820F004006F
:1003D00070607068C008C00715D500F0E9FAC01B4E
:1003E0000428F6D31CE7706820F0040000F001F93F
:1003F00007467068C008C007C9D500F0D9FAC01B0D
:100400000428F6D30CE7207841074BD5DFF8FC74BD
:100410003868C1050ED400F0D1FA00F0C9FA804660
:100420003868C10506D400F0C3FAA0EB0800032821
:10043000F6D3F5E6A068012804D1306840F0010049
:10044000306010E00528306806D140F004003060CC
:10045000316841F0010105E040084000306031683A
:1004600021F004013160A06841F2893760B100F0E9
:100470009FFA80463068800714D400F099FAA0EB08
:100480000800B842F6D3CBE600F092FA8046306816
:100490004008C00706D500F08BFAA0EB0800B84270
:1004A000F5D3BDE62078410620D5A06A0028B068C3
:1004B0000DD040F0010000F078F90746B0688007E1
:1004C00014D400F075FAC01B0328F7D3A8E640083F
:1004D000400000F06AF90746B0684008C00705D53B
:1004E00000F066FAC01B0328F6D399E6E06A0028FC
:1004F00073D0A968EA68022801F00C0159D1236B76
:1005000002F00300984202BF02F07000636B984251
:1005100013D1A36BC2F30620984202BF02F47810F5
:10052000E36B984209D1236C02F06060984202BFED
:1005300002F06042606C824237D00C293AD02868C1
:1005400041013FF55BAE00F0F5F9064628688101F0
:1005500005D500F02DFA801B0328F7D360E6E86884
:10056000DFF8AC13226B0840616B1043A26B0843A9
:10057000E16B40EA0220226C0843616C104308439F
:10058000E860286840F080702860E96841F0805198
:10059000E96000F00DFA0446286881011DD400F0DE
:1005A00007FA001B0328F7D33AE62868810114D420
:1005B000E7E70C293FF422AE00F0BCF904462868B6
:1005C000810105D500F0F4F9001B0328F7D327E6D5
:1005D000E868DFF840130840E8600020BDE8F081DB
:1005E00029606968206A21F47F4141EA002169603D
:1005F0007047706000F0DCB92DE9F84304008846CC
:1006000000F0AE80DFF8105300F0CAF80CD200F012
:10061000CFF8064600F0C4F806D000F0C9F9801BF8
:100620000228F7D90320B9E0207881074FF0B046BF
:1006300011D5B268A06822F0F0020243B26000F067
:10064000B7F90746B068C00305D400F0B1F9C01B84
:100650000228F7D9E6E72078DFF89C72810612D5E8
:100660003A68606922F0F00202433A6000F0A0F9B3
:1006700081463868800306D400F09AF9A0EB09009F
:100680000228F6D9CEE72078410613D53868A1694B
:100690000009000140EA1110386000F089F9814634
:1006A0003868C00306D400F083F9A0EB09000228E3
:1006B000F6D9B7E72078410711D5B268E06822F48F
:1006C000E0620243B26000F073F90746B06880034D
:1006D00005D400F06DF9C01B0228F7D9A2E72078F5
:1006E000010711D5B068216920F4605040EAC100CB
:1006F00000F05BF80746B068400305D400F058F9F5
:10070000C01B0228F7D98DE72078C1072AD5606879
:10071000022818D13168890322D5B268920840EACC
:10072000820000F042F80746B068616800F00C00F3
:10073000B0EB810F16D000F03BF9C01B41F28931BC
:100740008842F1D36EE7032802D13168890103E0C2
:100750000028316802D18907DFD401E04905DCD4E3
:1007600001201BE0286800F0070080450BD200F054
:100770001FF8044600F014F805D000F019F9001B2A
:100780000228F7D94EE700F05CF8DFF87011086036
:1007900000F030F9BDE8F24300F0E8B8BDE8F283BC
:1007A000286800F0070040457047B06000F000B9CD
:1007B0002968C90848EAC101296000F0F9B838B5CC
:1007C0004FF0B044564DA16811F00C0106D1FFF76F
:1007D000B5FCC0F3031055F8200032BD0429514A7E
:1007E00001D1104632BD08294F48454B04D121683C
:1007F000C90225D5184632BDE16801F0030102297E
:1008000002D0032902D006E010460AE02168C9029E
:1008100007D5184605E0FFF791FCC0F3031055F823
:100820002000E168E268E368C1F306214843C2F3AF
:100830000211491C5B0FB0FBF1F05B1CB0FBF3F045
:1008400032BD80B5FFF7BBFF3449FFE7374A09687F
:10085000C1F3031152F82110B0FBF1F002BD00000A
:1008600070B52F49B1282EBFCC6AC0F3031051F8E0
:100870002040FFF76CFC054600F0C4F82B49C5F397
:10088000031251F822102A4AB4FBF1F15FF0000480
:10089000B1FBF2F1B0F5007F30A220461FD100BFBE
:1008A00027A353F820508D4216D2401C0328F8D9B4
:1008B000194D2868C00844EAC00000F03EF806461A
:1008C000286800F00700A04213D000F071F8801BE8
:1008D0000328F5D3032070BD52F82040E8E700BF9D
:1008E0001BA353F820508D42F6D2401C0328F8D3A6
:1008F000DEE7002070BD0000080100580C00002059
:1009000000093D0008000020900000580004005835
:100910008C80C111FCFFFEEE00400058080000581A
:10092000B80E00080024F40000127A00780E0008C7
:1009300040420F00286820F08070286000F038B82E
:1009400012000000240000003600000040000000FB
:10095000060000000C000000100000000000000075
:1009600001000000020000000300000070B50F4EFF
:10097000044630780025A8B1FFF763FF32784FF4C2
:100980007A71B1FBF2F2B0FBF2F000F07BF848B9FB
:10099000102C07D2002221464FF0FF3000F054F80F
:1009A000B46000E00125284670BD00BF00000020B3
:1009B00001484068704700BF0000002002480168FD
:1009C00041F4807101607047000400580B4810B575
:1009D000016841F480710160032000F028F80020D4
:1009E000FFF7C4FF0024002814BF012400F068F8BA
:1009F000204610BD02488068704700000040005843
:100A000000000020DFF80800006800F4C0607047B4
:100A1000000400580901020002D4244881547047A0
:100A2000234B02F00F021A4402F8041C7047214BBA
:100A300019684FF6FF020002114000F4E06008431D
:100A40001D4908431860704770B51A4B1C68C4F301
:100A500002230124C3F10705052D2EBF0F2504FA3B
:100A600005F56D1E1E1D072E34BF0023DB1E294019
:100A7000994004FA03F3BDE870405B1E1A4011432D
:100A8000C8E7000010B5401EB0F1807F01D30120FF
:100A900010BD0A4C60600F214FF0FF30FFF7BAFF26
:100AA0000021A16007202060002010BD00E400E0CC
:100AB00018ED00E00CED00E00000FA0510E000E0A9
:100AC000704730B5016884684218416802EB5103F1
:100AD000C90703D54C4401E0491C08D19A4218BF0C
:100AE00012F9011B01D10C3030BD12F8015B002955
:100AF00004F8015BF0D4491EF7D5EFE72DE9F04F7C
:100B00000027684A684B4FF00F0805460E4638E04C
:100B1000664CA54214BF072404248C40644944EA6F
:100B20000E0441F82C40C143D3F800C0746801EAB8
:100B30000C0CE40248BF40EA0C0CC3F800C0D3F828
:100B400004C0746801EA0C0CA40248BF40EA0C0C13
:100B5000C3F804C0D2F800C0746801EA0C0CE403C6
:100B600048BF40EA0C0CC2F800C0D2F804C001EA49
:100B70000C0C7168890348BF40EA0C0CC2F804C031
:100B80007F1C316831FA07F000F082800124BC40FC
:100B900014EA0100F4D04FEA470C032101FA0CF1EA
:100BA0006FEA010E716801F00309B9F1010F1CBF72
:100BB00001F00301022912D1A968D6F80C900EEABF
:100BC000010109FA0CF949EA0101A960696821EA01
:100BD00004047168C1F30011B9400C436C60B900A2
:100BE000347904F00304032C21D0EC68D6F8089083
:100BF0000EEA040409FA0CF949EA0404EC603479B9
:100C000004F00304022C12D1FC0805EB840401F06B
:100C10001C09D4F820A008FA09FB2AEA0B0AD6F826
:100C200010B00BFA09F949EA0A09C4F820902C68B7
:100C30000EEA040E347904F0030404FA0CF444EAD6
:100C40000E0CC5F800C0746814F4403F98D0DFF86B
:100C500060E04FEA970C5EF82C4001F00C0108FAB6
:100C600001FE24EA0E0EB5F1904F08BF00240ED00D
:100C7000104CA54208BF012409D00F4CA54208BF63
:100C8000022404D00D4CA5427FF442AF032444E774
:100C9000BDE8F08F426901EA0203914341EA034152
:100CA0008161704780080058000800580010004813
:100CB000080001400004004800080048000C0048FB
:100CC000404981B00A6802430A6009680840009000
:100CD000009801B0704738B5FFF778FE00F02AF8A9
:100CE0000220FFF7EDFF0220FFF7EAFF364D374CF9
:100CF0000120686001210220A960E8602960204687
:100D00002946FFF7FBFE2020286029462046FFF7F2
:100D1000F5FE01212046FFF7BDFF4FF47A7000F089
:100D200059F820212046FFF7B5FF4FF47A7000F004
:100D300051F8EEE780B59AB04822002108A800F0EB
:100D40005DF81C22002101A800F058F82048026834
:100D5000012161F34A2202602021006800F4C06092
:100D600000900122009808910F92002110916022BA
:100D70000221119213910122002114921591202237
:100D80004FF40021169217914FF000524FF0C061BE
:100D90001992189108A8FFF7E1F900B1FEE70321C5
:100DA00002916F208021019000220691039204920B
:100DB00005920792032101A8FFF71EFC00B1FEE790
:100DC0001BB000BD4C00005810000020000400487B
:100DD0000004005838B50446FFF7EAFD14F1010F8E
:100DE000054602D0044801786418FFF7E1FD401B76
:100DF000A042FAD331BD00BF0000002010B5044668
:100E000010460A460146204600F002F8204610BD72
:100E100062F30F2262F31F42401810F0030308D060
:100E2000C91A1FD3DB0748BF00F8012D28BF20F8DF
:100E3000022D130030B414461546103928BF20E99E
:100E40003C00FAD8490728BF20E90C0048BF40F809
:100E5000042D890028BF20F8022D48BF00F8012D7D
:100E600030BC7047C91818BF00F8012DCB0728BF48
:100E700000F8012D70470000010000000300000091
:100E80000500000001000000010000000600000055
:100E90000A00000020000000020000000400000022
:100EA000080000001000000040000000800000006A
:100EB0000001000000020000A0860100400D0300B8
:100EC000801A060000350C0040420F0080841E008E
:100ED00000093D0000127A000024F40000366E0183
:100EE0000048E801006CDC02000000000000000087
:100EF00000000000000000001349002008604FF0CF
:100F0000B0411248026842F4700202604FF4E022DD
:100F1000086840F0010008608A600B680C480340D4
:100F20000C480B60026822F0050202600022436850
:100F30005B085B0043600848C8600861086820F4EB
:100F4000802008608A61704708ED00E088ED00E0CD
:100F5000FBFEF6FA940000580010042210B5074971
:100F600079441831064C7C44163404E00A68081DA4
:100F7000114488470146A142F8D110BD2C00000061
:100F8000380000004EF68851CEF20001086840F4A7
:100F900070000860BFF34F8FBFF36F8F4FF0017089
:100FA000E1EE100A704700001BFBFFFFA4010000E8
:100FB0001A0000000000002000F00DF8002801D009
:100FC000FFF7CCFFAFF300800020AFF30080FFF706
:100FD00082FE00F002F80120704700F001B8000026
:100FE0000746384600F002F8FBE7000080B5AFF393
:100FF0000080024A11001820ABBEFBE72600020069
:101000000548014603B4684680F30988AFF30080C1
:10101000FFF7B8FFFFF7D0FFA5EDF5FE01488047C9
:1010200001480047F90E0008011000080248416815
:1010300002788A1842607047000000207047FEE77F
:10104000FEE7704770477047FFF7F0BFFFF7FEBF3E
:10105000FFF7FEBFFFF7FEBFFFF7FEBFFFF7FEBFC4
:10106000FFF7FEBFFFF7FEBFFFF7FEBFFFF7FEBFB4
:10107000FFF7FEBFFFF7FEBFFFF7FEBFFFF7FEBFA4
:10108000FFF7FEBFFFF7FEBFFFF7FEBFFFF7FEBF94
:10109000FFF7FEBFFFF7FEBFFFF7FEBFFFF7FEBF84
:1010A000FFF7FEBFFFF7FEBFFFF7FEBFFFF7FEBF74
:1010B000FFF7FEBFFFF7FEBFFFF7FEBFFFF7FEBF64
:1010C000FFF7FEBFFFF7FEBFFFF7FEBFFFF7FEBF54
:1010D000FFF7FEBFFFF7FEBFFFF7FEBFFFF7FEBF44
:1010E000FFF7FEBFFFF7FEBFFFF7FEBFFFF7FEBF34
:1010F000FFF7FEBFFFF7FEBFFFF7FEBFFFF7FEBF24
:10110000FFF7FEBFFFF7FEBFFFF7FEBFFFF7FEBF13
:10111000FFF7FEBFFFF7FEBFFFF7FEBFFFF7FEBF03
:10112000FFF7FEBFFFF7FEBFFFF7FEBFFFF7FEBFF3
:10113000FFF7FEBFFFF7FEBFFFF7FEBFFFF7FEBFE3
:10114000FFF7FEBFFFF7FEBFFFF7FEBFFFF7FEBFD3
:0D1150000001F9000010FC0001093DEB005A
:0400000508001001DE
:00000001FF
